{
  "_format": "hh-sol-artifact-1",
  "contractName": "IPFSHashStorage",
  "sourceName": "contracts/IPFSHashStorage.sol",
  "abi": [
    {
      "inputs": [],
      "stateMutability": "nonpayable",
      "type": "constructor"
    },
    {
      "inputs": [
        {
          "internalType": "address",
          "name": "owner",
          "type": "address"
        }
      ],
      "name": "OwnableInvalidOwner",
      "type": "error"
    },
    {
      "inputs": [
        {
          "internalType": "address",
          "name": "account",
          "type": "address"
        }
      ],
      "name": "OwnableUnauthorizedAccount",
      "type": "error"
    },
    {
      "anonymous": false,
      "inputs": [
        {
          "indexed": true,
          "internalType": "address",
          "name": "user",
          "type": "address"
        },
        {
          "indexed": false,
          "internalType": "string",
          "name": "ipfsHash",
          "type": "string"
        }
      ],
      "name": "HashStored",
      "type": "event"
    },
    {
      "anonymous": false,
      "inputs": [
        {
          "indexed": true,
          "internalType": "address",
          "name": "previousOwner",
          "type": "address"
        },
        {
          "indexed": true,
          "internalType": "address",
          "name": "newOwner",
          "type": "address"
        }
      ],
      "name": "OwnershipTransferred",
      "type": "event"
    },
    {
      "inputs": [],
      "name": "getHashes",
      "outputs": [
        {
          "internalType": "string[]",
          "name": "",
          "type": "string[]"
        }
      ],
      "stateMutability": "view",
      "type": "function"
    },
    {
      "inputs": [],
      "name": "owner",
      "outputs": [
        {
          "internalType": "address",
          "name": "",
          "type": "address"
        }
      ],
      "stateMutability": "view",
      "type": "function"
    },
    {
      "inputs": [],
      "name": "renounceOwnership",
      "outputs": [],
      "stateMutability": "nonpayable",
      "type": "function"
    },
    {
      "inputs": [
        {
          "internalType": "string",
          "name": "_ipfsHash",
          "type": "string"
        }
      ],
      "name": "storeHash",
      "outputs": [],
      "stateMutability": "nonpayable",
      "type": "function"
    },
    {
      "inputs": [
        {
          "internalType": "address",
          "name": "newOwner",
          "type": "address"
        }
      ],
      "name": "transferOwnership",
      "outputs": [],
      "stateMutability": "nonpayable",
      "type": "function"
    }
  ],
  "bytecode": "0x608060405234801561001057600080fd5b5033600073ffffffffffffffffffffffffffffffffffffffff168173ffffffffffffffffffffffffffffffffffffffff16036100845760006040517f1e4fbdf700000000000000000000000000000000000000000000000000000000815260040161007b919061019e565b60405180910390fd5b6100938161009960201b60201c565b506101b9565b60008060009054906101000a900473ffffffffffffffffffffffffffffffffffffffff169050816000806101000a81548173ffffffffffffffffffffffffffffffffffffffff021916908373ffffffffffffffffffffffffffffffffffffffff1602179055508173ffffffffffffffffffffffffffffffffffffffff168173ffffffffffffffffffffffffffffffffffffffff167f8be0079c531659141344cd1fd0a4f28419497f9722a3daafe3b4186f6b6457e060405160405180910390a35050565b600073ffffffffffffffffffffffffffffffffffffffff82169050919050565b60006101888261015d565b9050919050565b6101988161017d565b82525050565b60006020820190506101b3600083018461018f565b92915050565b610c0e806101c86000396000f3fe608060405234801561001057600080fd5b50600436106100575760003560e01c80634245d48e1461005c578063715018a61461007a57806371dc61cb146100845780638da5cb5b146100a0578063f2fde38b146100be575b600080fd5b6100646100da565b604051610071919061061b565b60405180910390f35b6100826101f0565b005b61009e60048036038101906100999190610786565b610204565b005b6100a86102c7565b6040516100b59190610810565b60405180910390f35b6100d860048036038101906100d39190610857565b6102f0565b005b6060600160003373ffffffffffffffffffffffffffffffffffffffff1673ffffffffffffffffffffffffffffffffffffffff168152602001908152602001600020805480602002602001604051908101604052809291908181526020016000905b828210156101e757838290600052602060002001805461015a906108b3565b80601f0160208091040260200160405190810160405280929190818152602001828054610186906108b3565b80156101d35780601f106101a8576101008083540402835291602001916101d3565b820191906000526020600020905b8154815290600101906020018083116101b657829003601f168201915b50505050508152602001906001019061013b565b50505050905090565b6101f8610376565b61020260006103fd565b565b600160003373ffffffffffffffffffffffffffffffffffffffff1673ffffffffffffffffffffffffffffffffffffffff168152602001908152602001600020819080600181540180825580915050600190039060005260206000200160009091909190915090816102759190610a9a565b503373ffffffffffffffffffffffffffffffffffffffff167f64e6e76f95f944072b8d2f4480943e67dcfa32fcda603d3f231a8213489e9775826040516102bc9190610bb6565b60405180910390a250565b60008060009054906101000a900473ffffffffffffffffffffffffffffffffffffffff16905090565b6102f8610376565b600073ffffffffffffffffffffffffffffffffffffffff168173ffffffffffffffffffffffffffffffffffffffff160361036a5760006040517f1e4fbdf70000000000000000000000000000000000000000000000000000000081526004016103619190610810565b60405180910390fd5b610373816103fd565b50565b61037e6104c1565b73ffffffffffffffffffffffffffffffffffffffff1661039c6102c7565b73ffffffffffffffffffffffffffffffffffffffff16146103fb576103bf6104c1565b6040517f118cdaa70000000000000000000000000000000000000000000000000000000081526004016103f29190610810565b60405180910390fd5b565b60008060009054906101000a900473ffffffffffffffffffffffffffffffffffffffff169050816000806101000a81548173ffffffffffffffffffffffffffffffffffffffff021916908373ffffffffffffffffffffffffffffffffffffffff1602179055508173ffffffffffffffffffffffffffffffffffffffff168173ffffffffffffffffffffffffffffffffffffffff167f8be0079c531659141344cd1fd0a4f28419497f9722a3daafe3b4186f6b6457e060405160405180910390a35050565b600033905090565b600081519050919050565b600082825260208201905092915050565b6000819050602082019050919050565b600081519050919050565b600082825260208201905092915050565b60005b8381101561052f578082015181840152602081019050610514565b60008484015250505050565b6000601f19601f8301169050919050565b6000610557826104f5565b6105618185610500565b9350610571818560208601610511565b61057a8161053b565b840191505092915050565b6000610591838361054c565b905092915050565b6000602082019050919050565b60006105b1826104c9565b6105bb81856104d4565b9350836020820285016105cd856104e5565b8060005b8581101561060957848403895281516105ea8582610585565b94506105f583610599565b925060208a019950506001810190506105d1565b50829750879550505050505092915050565b6000602082019050818103600083015261063581846105a6565b905092915050565b6000604051905090565b600080fd5b600080fd5b600080fd5b600080fd5b7f4e487b7100000000000000000000000000000000000000000000000000000000600052604160045260246000fd5b6106938261053b565b810181811067ffffffffffffffff821117156106b2576106b161065b565b5b80604052505050565b60006106c561063d565b90506106d1828261068a565b919050565b600067ffffffffffffffff8211156106f1576106f061065b565b5b6106fa8261053b565b9050602081019050919050565b82818337600083830152505050565b6000610729610724846106d6565b6106bb565b90508281526020810184848401111561074557610744610656565b5b610750848285610707565b509392505050565b600082601f83011261076d5761076c610651565b5b813561077d848260208601610716565b91505092915050565b60006020828403121561079c5761079b610647565b5b600082013567ffffffffffffffff8111156107ba576107b961064c565b5b6107c684828501610758565b91505092915050565b600073ffffffffffffffffffffffffffffffffffffffff82169050919050565b60006107fa826107cf565b9050919050565b61080a816107ef565b82525050565b60006020820190506108256000830184610801565b92915050565b610834816107ef565b811461083f57600080fd5b50565b6000813590506108518161082b565b92915050565b60006020828403121561086d5761086c610647565b5b600061087b84828501610842565b91505092915050565b7f4e487b7100000000000000000000000000000000000000000000000000000000600052602260045260246000fd5b600060028204905060018216806108cb57607f821691505b6020821081036108de576108dd610884565b5b50919050565b60008190508160005260206000209050919050565b60006020601f8301049050919050565b600082821b905092915050565b6000600883026109467fffffffffffffffffffffffffffffffffffffffffffffffffffffffffffffffff82610909565b6109508683610909565b95508019841693508086168417925050509392505050565b6000819050919050565b6000819050919050565b600061099761099261098d84610968565b610972565b610968565b9050919050565b6000819050919050565b6109b18361097c565b6109c56109bd8261099e565b848454610916565b825550505050565b600090565b6109da6109cd565b6109e58184846109a8565b505050565b5b81811015610a09576109fe6000826109d2565b6001810190506109eb565b5050565b601f821115610a4e57610a1f816108e4565b610a28846108f9565b81016020851015610a37578190505b610a4b610a43856108f9565b8301826109ea565b50505b505050565b600082821c905092915050565b6000610a7160001984600802610a53565b1980831691505092915050565b6000610a8a8383610a60565b9150826002028217905092915050565b610aa3826104f5565b67ffffffffffffffff811115610abc57610abb61065b565b5b610ac682546108b3565b610ad1828285610a0d565b600060209050601f831160018114610b045760008415610af2578287015190505b610afc8582610a7e565b865550610b64565b601f198416610b12866108e4565b60005b82811015610b3a57848901518255600182019150602085019450602081019050610b15565b86831015610b575784890151610b53601f891682610a60565b8355505b6001600288020188555050505b505050505050565b600082825260208201905092915050565b6000610b88826104f5565b610b928185610b6c565b9350610ba2818560208601610511565b610bab8161053b565b840191505092915050565b60006020820190508181036000830152610bd08184610b7d565b90509291505056fea264697066735822122001297f75d9fc423fcf781b5f12dd96865dfeeff605b52b7bdd729f104a645c2e64736f6c63430008140033",
  "linkReferences": {},
  "deployedLinkReferences": {}
}